:02000002B0004C
:1040000000400B009C880B00000006000C0005021D
:084010000401E50C00000000B2
:04401800C4790B005C
:1040200009480A49884208B505D0094A824202D0A7
:10403000121A03F00BFC0748074A0021121A03F07A
:1040400013FC014808BD00BFACE5032008880B0045
:1040500018E6032018E60320EDE7032070B5074EAD
:10406000074C02F037FBA41BA4080025AC4200D18A
:1040700070BD56F8043B98470135F7E7B8870B0049
:10408000DC870B0000F0C0B908B500F00BFABDE802
:10409000084002F0D7BA01F081BF01F087BF0000ED
:1040A00008B5034A03490C2001F0DCFEFEE700BF1F
:1040B000D55B0B00D8790B000078B0FA80F040098E
:1040C000704701230370704770B50C1E06461546F5
:1040D0000BDA0A2A09D12D2102F042F96142EAB233
:1040E0003046BDE8704002F054B92146F7E713B5F9
:1040F000044661B10846019103F0F6FB236801997B
:10410000DB680246204602B0BDE81040184702B006
:1041100010BD00002DE9F04102F0E4FB734B744F39
:104120001968744C02F018F9734800F070FF386099
:10413000022002F029FE38B923784FF4FA7083F098
:104140000103237002F052FA6C4E3B6832686C4DEA
:10415000934267DC0121052002F0FDFD00210420CF
:1041600002F0F9FD0021032002F0F5FD02F0BAFB98
:104170006449FFF7BCFFC82002F038FA94F80080C9
:10418000614C1320B8F1000F6FD102F010FE2860CF
:10419000204601F0CFF9C4F81080012120464FF0ED
:1041A000011800F0FCFD5949C4F81480204602F0C3
:1041B000D3F80A2229682046FFF786FF204602F03E
:1041C000D2F85349204602F0C7F80A223168204647
:1041D000FFF77AFF204602F0C6F8204601F018FCEF
:1041E00032682B689A420CDB0121204600F0D7FD93
:1041F0004849C4F81480204602F0C1F8204601F076
:1042000007FC642002F0F2F943493F4802F0A4F8A9
:1042100039683D480A22FFF757FFBDE8F0413A48A8
:1042200001F0F6BB2A6893424FF000014FF0050001
:104230000DDD02F090FD0021042002F08CFD012133
:10424000032002F088FD02F04DFB344991E702F0B3
:1042500082FD0121042002F07EFD0021032002F0F6
:104260007AFD02F03FFB2E4983E702F0A0FD3060AB
:10427000204601F05FF900232361012120464FF021
:10428000011800F08CFD2249C4F81480204602F089
:1042900063F80A2231682046FFF716FF204602F035
:1042A00062F81A49204602F057F80A222968204687
:1042B000FFF70AFF204602F056F8204601F0A8FB5F
:1042C00032682B689A420CDB0121204600F067FD22
:1042D0001049C4F81480204602F051F8204601F03D
:1042E00097FB1049014801F0E3FF8AE7A8E60320A5
:1042F00098E6032024E60320A4E603209CE603209E
:10430000A0E60320ED790B0028E60320FB790B00E3
:10431000027A0B00097A0B002B7A0B00F1790B0063
:10432000F6790B00297A0B00D0B5122002F03FFD80
:10433000C11702F057FF30A3D3E9002302F088FF32
:104340002FA3D3E9002303F0ADF8234B234C002225
:1043500002F0C6FD0022224B02F07AFF06462046FC
:104360000F4601F0E7F84FF00F13204601212361BB
:1043700000F015FD47EC106B4FF0011302212046B1
:10438000636102F0EDF81749204601F0E5FF10A344
:10439000D3E900233046394602F05AFF124B00227F
:1043A00002F0A0FD41EC100B0221204602F0D8F8EB
:1043B0000E49204601F0D0FF204601F029FB0C49B0
:1043C0000C4801F075FFBDE8D040642002F00EB942
:1043D000CDCCCCCCCCCCFC3F0000E03F28E6032089
:1043E00000005940387A0B00000040403F7A0B0033
:1043F000777A0B00A8E603206666666666660A4062
:104400000000000000FEAF4008B502F06BFA4FF468
:10441000165102F05BFA204800F010FD1E4801F032
:1044200089F81D4801F0F4FA02F030FD02F014FBA7
:1044300002F02CFD0146194800F0DEFE174800F09E
:1044400092FE164800F061FE02F020FD014613487E
:1044500000F0D2FE28B902F045FA114901F08FFFB1
:10446000FEE70021132002F065FC0021022002F08B
:1044700061FC0021122002F05DFC0121052002F008
:1044800059FC0121042002F055FCBDE8084001213F
:10449000032002F04FBC00BF28E60320A4E603205F
:1044A000417A0B0010B5174800F0F1FC154800F0F8
:1044B00007FDB8B11449154801F0FAFE134C124932
:1044C000204601F007FFA0B1FFF724FE02F00AFA30
:1044D000216801F041FF02F005FA2168BDE81040B3
:1044E00001F03ABF074800F0F5FC0028E6D0084983
:1044F000E1E70749204601F0EDFE0028EBD0FFF789
:1045000013FFE3E728E60320297A0B00A8E603203F
:10451000777A0B000D4B0E4A10B50024C3E9004416
:104520009A60032001F0A6FC2146012001F0B2FCB4
:10453000084800F032FD0721074800F051FCBDE8B3
:1045400010400649064801F09FBE00BF18E6032050
:104550000000FFFFA4E6032028E60320297A0B00D1
:10456000A8E60320704710B510210446FFF795FD1B
:10457000204610BD0EB403B503AB002153F8042B45
:10458000019301F0F0FF02B05DF804EB03B0704757
:1045900073B5044608462279A36832B1A3B90B4922
:1045A00002B0BDE8704001F0D7BE094A267B094D34
:1045B0000949647B012E18BF2946CDE9001407493B
:1045C000FFF7D8FF02B070BD054AEFE7797A0B001C
:1045D0003E7A0B00757A0B00717A0B008F7A0B0014
:1045E000687A0B002DE9F04F85B01F46BDF9388081
:1045F000BDF83C30A8EB0209A7EB010AB9F1000FA6
:10460000B8BFC9F10009BAF1000FB8BFCAF1000A7A
:10461000D14583460C46154604DD3A462C464746AE
:104620000D469046BC4205DD2A4645469046224648
:104630003C4617463E1BB2B20092A8EB050282EA46
:10464000E271A1EBE271C6F3C03202FA86F645458B
:10465000B4BF01224FF0FF32019176100292BC42AA
:104660001CDCDBF800200393D145D2F81880C7BFCB
:10467000294622462A4621465846C047019A039BAE
:10468000B61AB1B236B2002E05DA029A1544009A73
:1046900056182DB236B2013424B2E0E705B0BDE8B9
:1046A000F08F704710B404682469A4465DF8044B89
:1046B000604730B40468BDF808500295A46BA44666
:1046C00030BC604730B40468BDF808500295E46B14
:1046D000A44630BC604770B4BDF90C50BDF8106002
:1046E0000468CDE90356246CA44670BC60472DE9EC
:1046F000F3411C460368BDF820805B6905461646F9
:10470000013C34440F4624B298472B68CDF804800E
:1047100000949C6A28463B4632463946A0472B689F
:10472000DB6A284602B0BDE8F04118472DE9F341A5
:104730001D460368BDF820805B69044617460E4697
:104740009847CDE9007822686B1E3344956A20466D
:104750001BB23A463146A8472368DB6A204602B0BE
:10476000BDE8F04118472DE9F3471E460368BDF93F
:1047700028905B69BDF82C800C4605461746984783
:104780002644B4422B680BDACDF80080D3F820A081
:1047900021464B463A4628460134D04724B2F0E73A
:1047A000DB6A284602B0BDE8F047184713B5026837
:1047B0000191B0F90E100091146CB0F90C30002288
:1047C0001146A04702B010BD2DE9F74399421646A5
:1047D000BDF92870BDF82C90026880460D461C4635
:1047E00013D1BE42C8BF3346CDF82890C4BF3E4661
:1047F0001F467B1C946B9B1B1BB2324629464046CE
:10480000A44603B0BDE8F0436047BE420AD19942D6
:10481000C2BF0B4625461C46631CCDF82890D46BBE
:104820005B1BE9E753699847CDE90079D8F8003078
:1048300040469F6A324623462946B847D8F800309A
:10484000DB6A404603B0BDE8F04318472DE9F34763
:104850001D460368BDF82C805B69BDF928900446AD
:104860000F46164698472368CDF80080D3F824A059
:1048700032462B4639462046D0472368CDF8008083
:1048800009F1FF323244D3F824A039462B462046A2
:1048900012B2D0472368CDF80080D3F820A032466A
:1048A0004B4639462046D0476B1ED9192368CDF8B0
:1048B00000801D6A20464B46324609B2A84723684D
:1048C000DB6A204602B0BDE8F0471847704701F0A8
:1048D0000303B0F90A208376C907B0F9083059BF3D
:1048E0008381C2818281C3817047000030B54281DB
:1048F000C281074A074D0181002481814FF0FF31B9
:10490000C0E905124460056004610477046230BDAB
:1049100001010001B47F0B002DE9F04F89B0CDE912
:1049200002120268BDF948800493BDF94C30526907
:104930000593BDF850A00446904718F107024FF0C8
:10494000000648BF08F10E024FEAE20B0196354619
:10495000039B019ABDF904109A18059B8B4212B271
:1049600027DD049B33444FF0000906930FFA89F0CA
:1049700080451FFA89F117DD4F0705BF069BC01060
:104980006D001D5C18BFEDB22B060AD5029B206896
:1049900007921944836909B21F4620465346B84717
:1049A000079A09F10109E1E7019B013301935E4494
:1049B000CEE72368DB6A204609B0BDE8F04F184710
:1049C0002DE9F04F2DED028B91B01646026ABDF82D
:1049D00074809DF878509DF87C4003911F46BDF887
:1049E000703004938346002A40F0C580B0F90C3043
:1049F0008B4240F34C81B0F90E30B34240F3478113
:104A0000062313FB0513002B40F3418106EBC4037F
:104A1000002B40F33C81037F1BB9AF2F84BF0137CC
:104A2000FFB2DBF8003058465B69984705220992CF
:104A300000220592984A07EB8703D3180C93B3B270
:104A40000693059A0C9B9B5C0793ABB20B93BDF846
:104A50000C300893039B02FB05F919FA83F90FFA4E
:104A600089F308EE103A08230A93039B02EB030A2A
:104A70004FF000090FFA8AFA079ADBF80030D207E4
:104A800052D5012D1FFA89F23ED1012C3CD19B69F0
:104A900006991F46049B0A4412B251465846B8472D
:104AA00009F101034FFA83F9079B5B0807930A9BFF
:104AB000013B13F0FF030A93DED1059F01377BB260
:104AC0000593099B013B13F0FF030993B9D1049BA4
:104AD00043450FD0012DDBF800303BD1012C39D1FB
:104AE0000899CDF8008005311C6A3246082309B2C6
:104AF0005846A047DBF80030DB6A584611B0BDECE1
:104B0000028BBDE8F04F1847069914FB02F20A44E5
:104B1000049901910094DB6918EE101A1F4612B235
:104B20002B465846B847BBE7049A4245B8D0012DFA
:104B30001FFA89F207D1012C05D19B6906991F46FE
:104B40000A444346A8E70699CDF8048014FB02F214
:104B50000A44DFE70B9ACDF8048002EB8201089A41
:104B6000E4000A4411460094DC6932462B4609B23F
:104B70005846A047BEE7137A516812680B92FF1A95
:104B8000FFB201EBC70331F8372006929A780992F9
:104B9000DA780C92012D93F9052093F906A00A9278
:104BA00001D8012C57D9BDF9283008930FFA8AF3A0
:104BB0000793DBF8003058465B699847B3B24FF073
:104BC00000080E931AFA86F3C14647460F930C9BD2
:104BD0009F428FD2079B0E9A3B4403FB0423002283
:104BE00005920F9A1BB202EB070A08EE103A0FFA71
:104BF0008AFA4346099A0599914241D25A1CD2B287
:104C00005B070D9207D1069B06990B9A01339BB265
:104C100012F80190069319F0800F12D0012DDBF8E5
:104C20000030BDF80C101AD1012C18D10A9A9B69DA
:104C30001144059A11441E465246049B09B2584637
:104C4000B047059E0136F3B24FEA490905935FFA72
:104C500089F90D9BCEE70023CDE90733A9E7059835
:104C6000089A024402FB0511049ACDE90042DB696F
:104C700018EE102A1E4609B22B465846B047E0E708
:104C8000099B013798445FFA88F8FFB29FE711B09B
:104C9000BDEC028BBDE8F08FAC7A0B00F0B5026A78
:104CA00085B004460B46002A34D10A2908D1438A2C
:104CB0000282427E03EBC2036382012005B0F0BD95
:104CC0000D29FAD0E17E007E657E71B1B4F91060E5
:104CD000062111FB0061B4F90C60B142C1BFB4F907
:104CE0001210228201EBC5026282E28A0192A28A3C
:104CF0000092CDE90205B4F91220B4F91010204653
:104D0000FFF75EFE237E228A03EB430302EB43039D
:104D10002382D2E70A2907D100230382417E927AB7
:104D2000438A01FB0233C7E70D29C6D0157AA94291
:104D3000C3D3517A9942C0D351685D1BEDB201EBE8
:104D4000C505A87828B3E97819B3E17E267E677E89
:104D500091B195F905100844B4F9101006FB001143
:104D6000B4F90C00814207DD00202082B4F9121052
:104D7000927A02FB07126282E28A0192A28A009270
:104D8000CDE90267B4F91220B4F910102046FFF7FC
:104D900017FE2979227E238A01FB0233B8E7012915
:104DA00038BF0121017641767047000010B5064BEF
:104DB00003600446006D08B100F024FF204600F0B7
:104DC00047FA204610BD00BF0C800B0010B504460A
:104DD000FFF7ECFF20467021FFF75FF9204610BD7A
:104DE00030B585B004460D4602F050F8104A11491E
:104DF000CDE901214FF0FF32802103460092204689
:104E0000202200F09DFA0C4B23600023C4E91435E6
:104E100004F1580000F068F804F1600000F064F854
:104E200004F1680000F060F8204605B030BD00BF16
:104E3000801A0600A08601000C800B0013B5044602
:104E4000503000F0D7FE636DD90705D5022204214A
:104E500004F1580000F05CF8636D9A0705D5002254
:104E6000032104F1600000F053F8636D5B0705D582
:104E70000222114604F1680000F04AF80123009371
:104E80003C220221204600F063FB02B010BD10B5A9
:104E9000436DD907044602D5583000F046F8636DDB
:104EA0009A0703D504F1600000F03FF8636D5B07DB
:104EB00005D504F16800BDE8104000F036B810BD1B
:104EC000436D024613F0010003D002F1580000F0D8
:104ED0005CB87047436D024613F0040003D002F142
:104EE000680000F052B8704700210A22C0E90012A1
:104EF0007047002310B50446C171837188B201F078
:104F000043FF08B10323A37100F06CFE206010BDC5
:104F100038B50C4605461146A0B201F00BFF2146FC
:104F20002846BDE83840FFF7E4BF38B50446C079ED
:104F300001F02AFFA579003825F0080318BF0120E9
:104F4000C5F340058542A3710AD000F04BFEA3795A
:104F5000206083F00203A371A079C0F3C00038BDC4
:104F600000F040FE2368C01AA3889842F4D3A379C6
:104F700003F00103AB42EFD000F034FEA3792060D0
:104F800083F0010343F00803E5E7807900F00900AE
:104F9000A0F10803584258417047704710B50446C5
:104FA0006021006801F08AFD206801F092FDB0FAEE
:104FB00080F0400910BD38B505460C4600686021F8
:104FC00001F07CFD2868036821469B6898472868A3
:104FD000002101F07AFD08B1002038BD28680222C6
:104FE000602101F068FD286803681B699847002864
:104FF000F2D0286803685B6998470446286803680C
:105000005B699847E4B244EA002080B2E5E70921F1
:10501000FFF7D1BF0C21FFF7CEBF70B504460E4697
:1050200000686021154601F049FD2068036831469B
:105030009B68984720680368E9B29B689847206896
:105040000368290A9B689847206801F042FDB0FA7E
:1050500080F0400970BD70B504460D461646FFF756
:10506000AAFF00F47F4040EA060229462046BDE838
:105070007040FFF7D2BF70B504460D461646FFF7E5
:105080009AFFC0B240EA062229462046BDE8704099
:10509000FFF7C3BF08B5FFF78EFFC0F3072008BDB9
:1050A0002DE9F04104469DF818700D4698461646C5
:1050B0006AB1FFF780FFC0B200EA080343EA0702C3
:1050C0002946204636B1BDE8F041FFF7C4BFFFF7DF
:1050D000E1FFF1E7BDE8F041FFF7CDBFB1F5A07FFB
:1050E00007B50ED29F290ED84F298CBF402300232D
:1050F000009301223F230321FFF7D2FF03B05DF8A5
:1051000004FBC023F4E78023F2E707B500210091F8
:10511000FE230122FFF7C4FF03B05DF804FB07295B
:1051200007B50FD803290FD810D002290CBF0423CC
:10513000002300930122F1230321FFF7B1FF03B005
:105140005DF804FB0E23F4E70C23F2E70823F0E7F5
:1051500007B5002300930122FE230321FFF7A0FFE0
:1051600003B05DF804FB07B501220092FE23032182
:10517000FFF796FF03B05DF804FB07B50F298CBF5E
:105180000823002300930022F7230321FFF788FF61
:1051900003B05DF804FB07B5022300930122EF235F
:1051A0000421FFF77DFF03B05DF804FBC72907B5B5
:1051B00016D8B32916D89F2916D88B2916D877293F
:1051C00016D8632916D84A2994BF002101210091DD
:1051D000F82300220421FFF763FF03B05DF804FB0E
:1051E0000721F4E70621F2E70521F0E70421EEE7C5
:1051F0000321ECE70221EAE738B5044608462160BE
:1052000001F02AFC2046FFF7C9FE054610B900252B
:10521000284638BD2046FFF7FDFEB0F5C37FF6D126
:105220002046C821FFF7C2FF20462821FFF756FF7E
:1052300020460821FFF773FF10212046FFF79DFF4E
:105240002046FFF7A8FF2046FFF782FFE0E70000B7
:1052500010B5044B03600446C06A08B100F0A6FE16
:10526000204610BD18850B0010B50446FFF7F0FF6F
:1052700020465021FEF711FF204610BD002910B531
:105280004BDBB0F90C408C4247DD002A45DBB0F91E
:105290000E40944241DD847E022C1FD0032C26D088
:1052A000012C04D10489D24314440A4621B2012BB3
:1052B00023D0022B32D083BB002A13460489C06A54
:1052C000B8BFD31DDB1013FB041102F0070201234A
:1052D0009340425C22EA030242541EE00489013CEE
:1052E000611A4489D243224409B212B2DFE74489E9
:1052F000013C641A114622B2D9E7002A04891346F8
:10530000B8BFD31DDB1013FB0411C36A02F0070002
:1053100001228240585C02435A5410BD002A1346B1
:105320000489C06AB8BFD31DDB1013FB041102F05F
:105330000702012303FA02F2435C5A40CCE7000063
:1053400070B504461D460026FFF7D0FA114B2360C6
:10535000666215B901F09AFD0546FF2384F83330E3
:1053600084F836309DF9103084F837300A4BA36347
:10537000012384F83C30059BA3644FF6FF72069B23
:10538000A286C4E90A562664A4F84460E364204671
:1053900070BD00BF18850B0064800B00F8B5044693
:1053A000806A0D4690B194F9301001F08BFBA06A31
:1053B000036800219B689847A06A036829469B6898
:1053C0009847A06ABDE8F84001F083BB94F93530F6
:1053D000014698B201F0BFFC606A20B12946BDE8E1
:1053E000F84000F0F5BE0826802794F9330005EA5E
:1053F000070180B201F0AFFC94F93400012180B2C2
:1054000001F0A9FC94F93400002180B201F0A3FC62
:10541000013E4FEA5707E8D1F8BD38B50446806A27
:105420000D4680B1A16C01F013FB002D204614BF86
:10543000A721A621FFF7B2FFA06A88B1E16CBDE801
:10544000384001F005BB606A18B104F1380100F082
:1054500051FE94F93600002180B201F07CFCE4E7B3
:1054600094F93600012180B201F075FC606A18B130
:10547000BDE8384000F024BE38BD2DE9F8430446AD
:10548000806A0D468F1840B394F9301001F01AFB72
:10549000A06A036800219B6898470126AF42A06A72
:1054A00017D01F2E0CD901F014FB94F93010A06A0C
:1054B00001F008FBA06A036800219B689847012659
:1054C000A06A15F8011B036801369B689847F6B27D
:1054D000E4E7BDE8F84301F0FCBA94F93530014641
:1054E00098B201F038FCBD4222D0606A15F8019BE9
:1054F00018B1494600F06CFEF5E708264FF0800829
:1055000094F9330009EA080180B201F024FC94F90F
:105510003400012180B201F01EFC94F93400002116
:1055200080B201F018FC013E4FEA5808E8D1DAE7F2
:10553000BDE8F883B0F90A30DA1D48BF03F10E0266
:10554000B0F90830C06AD2105A43002102F08CB979
:105550002DE9FF411E46C36A9DF8288004460F4688
:105560001546C3B12046FFF7E5FFB4F90A00B4F9C8
:105570000810202821DC202301222038CDE9013227
:1055800000EBD07073237339009301EBD171894B19
:1055900040F34F0221E0B0F90A30D81D48BF03F1B3
:1055A0000E00B4F90830C010584300F0F7FCE06278
:1055B0000028D7D104B0BDE8F0814038C0F3C03234
:1055C00002FA80F240230120CDE901305223523902
:1055D0000093794B01EBD1715210204641F34F01FA
:1055E000FFF79AF9A06A84F83170002878D0002D6E
:1055F00074D1B4F90A30202B0CBF3C253D2584F82A
:105600003050B8F1000F01D001F026FAFEB194F944
:10561000370000281BDB012180B201F08BFB94F9DD
:105620003700012180B201F096FB012000F0DEFF7F
:1056300094F93700002180B201F08DFB0A2000F0C0
:10564000D5FF94F93700012180B201F084FBA06AF4
:10565000002874D0A16C01F0FBF9042257492046C0
:10566000FFF70BFF61890139C9B22046FFF796FEAB
:10567000534904222046FFF700FF94F93130012BF3
:105680000CBF102114212046FFF788FE04224D494B
:105690002046FFF7F2FEA3684B4A93425CD14B4988
:1056A00004222046FFF7E9FED9212046FFF776FEC7
:1056B00094F93130012B0CBF2221F1212046FFF754
:1056C0006DFE204642490622FFF7D7FEA06A002859
:1056D00063D0E16C01F0BCF901206BE76DB28EE79D
:1056E00094F93500012180B201F024FB94F93600D1
:1056F000012180B201F01EFB94F93600012180B235
:1057000001F029FB656A3DB1B8F1000F3FF47EAFAF
:10571000284600F0C1FC79E794F93300012180B2FA
:1057200001F008FB94F93400012180B201F002FB82
:1057300094F93400294680B201F00DFB66E7606AF7
:1057400018B104F1380100F0D5FC94F936000021BD
:1057500080B201F000FB80E71E4A93420ED11E4941
:1057600003222046FFF789FE94F93130012B0CBF4C
:105770009F21CF212046FFF711FE95E7174A93425C
:1057800092D1174903222046FFF777FE94F9313072
:10579000012B0CBF1021AF21ECE794F93600012159
:1057A00080B201F0D8FA606A002895D000F088FC39
:1057B00092E700BF30830B0070800B0078850B00F0
:1057C0007C850B0080850B00800020008A850B0003
:1057D00084850B00800040008E850B006000100067
:1057E00091850B0070B5002ABDF810503DDBB0F973
:1057F0000A40944239DD0029BEBF5B181BB200216C
:10580000B0F90840CE18A642C4BF631A1BB2002BE1
:105810002BDDC06AD61014FB0611014402F007000C
:1058200001228240012DD2B216D0022D0BD0E5B953
:10583000D243D2B20B44994217D011F8010B104059
:1058400001F8010CF7E70B4499420ED011F8010B57
:10585000504001F8010CF7E70B44994205D011F8CC
:10586000010B104301F8010CF7E770BDF0B50029FA
:10587000BDF8145076DBB0F90860B14272DA002A44
:10588000BEBF9B181BB20022B0F90A40D718A7422E
:10589000C4BFA31A1BB2002B64DDC2F3C404C76AE1
:1058A00016FB041612F00702DBB207EB060423D046
:1058B000C2F10802D2B22D4993423CBF4FF0FF0C17
:1058C000A2EB030E895C3CBF4CFA0EFC0CEA010112
:1058D000012D07D0022D2ED04DB917F806C02CEAA5
:1058E000010103E017F806C041EA0C01B9559342E3
:1058F00038D3B0F908100C449A1AD2B2072A0ED93C
:10590000022D1DD113462178C9432170083BB0F9FF
:105910000810DBB2072B0C44F5D802F007020AB3DB
:10592000134B012D9B5C1AD0022D1CD0D5B92278C7
:1059300022EA030315E017F806C081EA0C01D5E757
:10594000291E18BF01214942C9B213462170083BE4
:10595000B0F90860DBB2072B3444F7D8DDE72278D2
:1059600013432370F0BD22785340FAE768850B009B
:1059700070850B0070B41446827EBDF80C60022A5C
:105980000DD0032A18D0012A11D10289E44314440E
:1059900024B203960A46214670BCFFF767BF4289CE
:1059A0000589E44319441444691A24B209B20396E0
:1059B000224670BCFFF716BF45891944691A09B21F
:1059C000E7E730B41446827EBDF80850022A0DD0B5
:1059D000032A18D0012A11D1E2180489A41A24B28A
:1059E00002950A46214630BCFFF7FCBE0289C94336
:1059F0001144E2184489A41A09B224B2029522463D
:105A000030BCFFF733BF4289C943114409B2E7E70D
:105A10002DE9F8430446806A002842D0A16C01F0C9
:105A200017F8474905222046FFF727FD218901394C
:105A30002046C9B2FFF7B2FCB4F90A30DE1D48BFF8
:105A400003F10E06D4E90A052389F61013FB06F6C6
:105A500015FA86F600283AD094F9301001F032F8A1
:105A6000A06A036840219B6898470127B542A06A55
:105A700024D01F2F0CD901F02CF894F93010A06A13
:105A800001F020F8A06A036840219B68984701272D
:105A9000A06A15F8011B036801379B689847FFB29D
:105AA000E4E7606A18B104F1380100F023FB94F9CF
:105AB0003600002180B201F04EF9B2E701F009F89A
:105AC000A06A78B3E16CBDE8F84300F0C1BF94F977
:105AD0003500012180B201F03EF9AE42F0D0606A9B
:105AE00015F8019B18B1494600F072FBF5E708274D
:105AF0004FF0800894F9330009EA080180B201F000
:105B00002AF994F93400012180B201F024F994F9C2
:105B10003400002180B201F01EF9013F4FEA58081D
:105B2000E8D1DAE794F93600012180B201F013F9E7
:105B3000606A18B1BDE8F84300F0C2BABDE8F88366
:105B400094850B0008B5024B1B689B68019308BD48
:105B50006802030008B5024B1B68DB68019308BDAF
:105B60006802030008B5024B1B685B68019308BD1F
:105B70002C02030008B5024B1B689B68019308BD0B
:105B80002C02030008B5024B1B68DB68019308BDBB
:105B90002C02030008B5024B1B681B69019308BD6A
:105BA0002C02030008B5024B1B685B69019308BD1A
:105BB0002C02030008B5024B1B681B6B019308BD48
:105BC0002C02030008B5024B1B685B68019308BDFB
:105BD0001802030008B5024B1B68DB68019308BD7F
:105BE0001802030008B5024B1B685B69019308BDEE
:105BF0001802030008B5024B1B681B6B019308BD1C
:105C00004802030008B5024B1B685B6B019308BD9B
:105C10004802030008B5024B1B685B6C019308BD8A
:105C20004802030008B5024B1B685B69019308BD7D
:105C30006402030008B5024B1B68DB68019308BDD2
:105C40003C02030008B5024B1B681B69019308BDA9
:105C50003C02030008B5024B1B685B69019308BD59
:105C60003C02030008B5024B1B689B69019308BD09
:105C70003C02030008B5024B1B68DB69019308BDB9
:105C80003C02030008B5024B1B681B6A019308BD68
:105C90003C02030008B5024B1B689B6A019308BDD8
:105CA0003C02030008B5024B1B681B6C019308BD46
:105CB0003C02030008B5024B1B681B68019308BD3A
:105CC0002802030008B5024B1B68DB68019308BD7E
:105CD0002802030008B5024B1B689B69019308BDAD
:105CE0002802030008B5024B1B68DB69019308BD5D
:105CF0002802030008B5024B1B681B6A019308BD0C
:105D00002802030008B5024B1B685B6A019308BDBB
:105D10002802030008B5024B1B689B6A019308BD6B
:105D20002802030008B5024B1B68DB6A019308BD1B
:105D30002802030008B5024B1B681B6B019308BDCA
:105D40002802030008B5024B1B685B6B019308BD7A
:105D50002802030008B5024B1B681B6C019308BDA9
:105D60002802030008B5024B1B681B6D019308BD98
:105D70002802030008B5024B1B681B68019308BD8D
:105D80003002030008B5024B1B685B69019308BD34
:105D90003002030008B5024B1B68DB69019308BDA4
:105DA0003002030008B5024B1B681B6A019308BD53
:105DB0003002030008B5024B1B685B6A019308BD03
:105DC0003002030008B5024B1B68DB6B019308BD72
:105DD0003002030008B5024B1B681B6C019308BD21
:105DE0003002030008B5024B1B685B6C019308BDD1
:105DF0003002030008B5024B1B681B68019308BD05
:105E00004C02030008B5024B1B685B68019308BD98
:105E10004C02030008B5024B1B681B69019308BDC7
:105E20004C02030008B5024B1B685B69019308BD77
:105E30004C02030008B5024B1B689B69019308BD27
:105E40004C02030008B5024B1B68DB69019308BDD7
:105E50004C02030008B5024B1B681B6A019308BD86
:105E60004C02030008B5024B1B685B6B019308BD35
:105E70006002030008B5024B1B685B68019308BD14
:105E80002002030008B5024B1B685B69019308BD43
:105E90002002030008B5024B1B68DB6A019308BDB2
:105EA0002002030008B5034B1B68D3F88830019328
:105EB00008BD00002002030008B5034B1B68D3F89F
:105EC0009430019308BD00002002030008B5024B86
:105ED0001B685B68019308BD4002030008B5024BD4
:105EE0001B689B68019308BD4002030008B5024B84
:105EF0001B68DB68019308BD4002030008B5024B34
:105F00001B681B69019308BD4002030008B5024BE2
:105F10001B685B69019308BD4002030008B5024B92
:105F20001B689B69019308BD4002030008B5024B42
:105F30001B68DB69019308BD4002030008B5024BF2
:105F40001B681B6A019308BD4002030008B5024BA1
:105F50001B681B6B019308BD4002030008B5024B90
:105F60001B685B6B019308BD4002030008B5024B40
:105F70001B681B6C019308BD4002030008B5024B6F
:105F80001B685B6C019308BD4002030008B5024B1F
:105F90001B68DB6B019308BD4402030008B5024B8C
:105FA0001B681B68019308BD1C02030008B5024B67
:105FB0001B685B68019308BD1C02030008B5024B17
:105FC0001B689B68019308BD1C02030008B5024BC7
:105FD0001B685B6A019308BD1C02030008B5024BF5
:105FE0001B681B6C019308BD1C02030008B5024B23
:105FF0001B685B6C019308BD1C0203000022406813
:106000001146FFF79BBF002240681146FFF7A6BF6D
:1060100040680022FFF79ABF4068002281F001012A
:10602000FFF784BF002340681A461946FFF776BF82
:10603000002340681A461946FFF768BF00224068EF
:106040001146FFF75BBF002240681146FFF746BFCD
:10605000406800220221FFF749BF002340681A462A
:10606000FFF734BF024B03225A60024A1A6070479E
:10607000C4E60320A4850B000021FFF7B3BE002176
:10608000FFF7A8BE10B5044608462170FFF782FE50
:1060900000236360204610BD13B504460078FFF767
:1060A000EEFF58B9207801904FF6FF71FFF762FEBE
:1060B000019802B0BDE81040FFF7DEBF02B010BD8E
:1060C0000078FFF7D9BF0000400830B51860002401
:1060D00018688842E5B206D90134082C02D040087D
:1060E0001860F5E70725024B5B5D137030BD00BFFC
:1060F000D8850B002DE9F04306468FB000780C469A
:10610000FFF7BDFF00281BDB35781422002109A80A
:1061100001F0AAFB0B23002209A92846ADF8243080
:10612000FFF748FE9DF82D3013B19DF82C5055B166
:106130000027B946B846012523795DB1C3B10020D7
:106140000FB0BDE8F083DDF830809DF834909DF805
:106150003570F1E7002B35D1A368434508D18DF8A0
:1061600020908DF82170BDF82020A3899A42E6D0B6
:106170000023A1688DF80F300A9804AB0DF10F02CF
:10618000FFF7A2FF217985B989B9A36843450ED3EA
:106190008DF820908DF82170BDF82020A3899A42B7
:1061A00005D1049B434502D1C9E70029F9D1002359
:1061B0000193637B00939DF80F20237B3078FFF7DA
:1061C00001FEBCE7CDE900552B462A460121F5E743
:1061D00008B50078FFF7D6FDC0B208BD054B022216
:1061E0001A60054B054A9A600020C3E90000FFF7DA
:1061F00041BE00BFD8E60320CCE603200000FFFF2D
:1062000010B50446006808B1FFF7D0FE0023C4E9CA
:106210000133236010BD38B504460D4600680131D6
:10622000FFF7CCFE10B1C4E90005012038BD10B560
:106230000368044623B143688B4201D3012010BD9B
:106240002046FFF7E8FF0028F9D0A368002BF5D11E
:1062500022681370F2E737B50D46114601920446E5
:10626000FFF7E5FF019A28B92046FFF7C9FF20464E
:1062700003B030BDA2602946206801F0E7FA226829
:10628000A3680021D154F2E7002313B5C0E900331D
:1062900004468360037341B10846019101F024FB79
:1062A000019902462046FFF7D6FF204602B010BDF6
:1062B00013B5044659B10846019101F015FB019947
:1062C00002462046FFF7C7FF204602B010BDFFF789
:1062D00097FFF9E708B582683AB921B10878B0FAB2
:1062E00080F0400900E0012008BD006809B900788D
:1062F000F5E701F0EFFAF2E7024800230360FFF749
:1063000089BC00BFDCE60320F8B506460D468F18B1
:106310000024BD420CD0336815F8011B9B68304641
:106320009847031E01DB1C44F3E7002C08BF1C4602
:106330002046F8BD13B50446084659B1019101F055
:10634000D3FA23680199DB680246204602B0BDE813
:106350001040184702B010BD08B5FFF7EBFF08BDAD
:1063600003689B68184738B50D210546FFF7F8FF0D
:106370000A2104462846FFF7F3FF204438BD38B50C
:106380000546FFF7D7FF04462846FFF7ECFF2044F9
:1063900038BD30B58BB00023012A8DF8243098BF6A
:1063A0000A2209AC0D46B1FBF2F101FB125303F0D6
:1063B000FF03092B94BF30333733DBB2AA4204F812
:1063C000013DEFD92146FFF7B5FF0BB030BD00000E
:1063D0002DE9F74F55EC104B06460F4610EE102AEC
:1063E00010EE100A2B46294601F0CCF940B1534972
:1063F0003046FFF79FFF8246504603B0BDE8F08F5E
:1064000025F000494E4B4FF0FF322046494601F03F
:10641000B9F948B94A4B4FF0FF322046494601F0DE
:1064200093F908B94749E3E7474B4FF060422046EC
:10643000294601F09DF908B14449D9E7444B4FF092
:1064400060422046294601F075F90028F4D1002267
:1064500000232046294601F06DF9D0B12D213046A8
:10646000FFF77EFF05F1004382461D463949DFF8FC
:10647000EC904FF0000B00204FF000085FFA8BF318
:106480009F4208D942464B4601F00CF80BF1010B34
:10649000F4E78246EAE722462B4600F023FD0D464C
:1064A000044601F0ADF9804600F058FE02460B4666
:1064B0002046294600F014FD0A2204460D463046C7
:1064C0004146FFF766FF8244002F95D02249DFF84E
:1064D0008C903046FFF72EFF4FF000088244002FCB
:1064E0008AD042464B462046294600F0B1FE04467B
:1064F0000D4601F05DF9B0F1000B1CDA2D2130469C
:10650000FFF72EFFCBF1000103460A22304601932C
:10651000FFF73FFF019B18448244584600F02EFECF
:1065200002460B462046294600F0DAFC013F0446AD
:106530000D46FFB2D3E759460023E6E7E0850B009E
:10654000FFFFEF7FE4850B00FFFFEF41E8850B00C5
:10655000FFFFEFC10000E03F667A0B00000024401F
:10656000C9B2FFF735BF2DE9F04186B000AF05464F
:106570000E46381D142114463B60FFF727FD1328F3
:106580000ED8391D2846FFF7D5FE04461EB1284611
:10659000FFF7E9FE044420461837BD46BDE8F08108
:1065A00000F1080323F00703E846ADEB030D224694
:1065B000411C3B686846FFF709FD69462846FFF71E
:1065C000B9FE0446C546E1E7014B024A1A6070472E
:1065D000E0E60320EC850B00024B1A68024B1A60C0
:1065E000704700BFACE50320E4E603200021FFF77D
:1065F00049BC0000014B00229A607047E8E6032086
:10660000014B1860704700BFB0E5032008B50B4B85
:1066100043B100F067F903681B699847002801DD62
:10662000AFF30080064B43B100F0F4FB03681B6935
:106630009847002801DDAFF3008008BD000000008E
:106640000000000008B5FFF7E1FFFFF7CBFA014BB0
:10665000186008BD40E703200548064A064908B50A
:10666000121A01F0F3F8054B054A1A6008BD00BF85
:1066700000F4032004F4032004880B0000F403203A
:106680001E1C279A07B5002300931A466FF0770166
:10669000FFF712FC03B05DF804FB000007B5438868
:1066A0000A2B08D0502B0BD1094B1B684BB103B000
:1066B0005DF804EB1847FFF7E5FF03B05DF804FB56
:1066C000002300931A466FF07701FFF7F5FBF4E71C
:1066D000FCE6032010B512480021FFF787FC114BA0
:1066E0001A68114B9A42114B0CBF012200221A70FA
:1066F00001D0FFF7B1FFFFF765FA044601F0BCF8DF
:106700000B4B13B12046AFF3008000210848FFF780
:106710003DFCBDE8104007480021FFF7C3BB00BFA8
:1067200001660B0000F403201E1C279AF8E60320E4
:10673000000000009D660B00704710B5182104464C
:10674000FDF7ABFC204610BDF0B5037D062B8DB0E8
:106750000E4600F104074FF0000412D000F10805C6
:1067600015F8011D0A223046FFF713FEAF4204441C
:1067700019D0002CF4D02E213046FFF7F1FD04444F
:10678000EEE72F236A4639460A208DF80040FFF7CE
:1067900049FA684601F0A8F833680246DB686946A2
:1067A00030469847044620460DB0F0BD10B5054B65
:1067B0000446112240F8043B002101F055F8204620
:1067C00010BD00BF14860B000346074A10B543F8FE
:1067D000042B01F1100251F8044B43F8044B914291
:1067E000F9D10A781A7010BD14860B0010B59DF807
:1067F000084044EA032343EA024242EA01610423D7
:106800004160037510BD000007B5064B0360CB78EF
:1068100000938B784A780978FFF7E8FF03B05DF8BA
:1068200004FB00BF14860B0041747047704770472B
:1068300008B50021007CFFF7FDFA40EAE07008BDD2
:1068400008B50121007CFFF7F5FA40EAE07008BDC9
:1068500008B5007CFFF7E6FA20EAE07008BD08B54D
:10686000007CFFF7D7FA20EAE07008BD13B50446B4
:10687000007C0191FFF7D6FA0028019901DC607CC9
:1068800020B1207CFFF7DEFA20EAE07002B010BDF4
:10689000007CFFF7DFBA10B514210446FDF7FDFBBD
:1068A000204610BD10B54FF47A7304460846002107
:1068B000C4E90113044B236001232074637411465F
:1068C000FFF798FA204610BD28860B00007C0022B6
:1068D000FFF798BA10B514220446002100F0C4FF57
:1068E000204610BD10B50F4C88B003A8FFF7F2FF8B
:1068F0002178BFF35B8F11F001010FD12046019188
:10690000FDF7DAFB019948B103AA0748FFF7CAFF70
:106910002046FDF7D6FB054800F092FF024808B07C
:1069200010BD00BF00E7032004E703202D680B0023
:1069300070474174704708B5007CFFF7ABF920EA57
:10694000E07008BD08B5007CFFF77CF920EAE07034
:1069500008BD08B5007CFFF785F940EAE07008BD86
:1069600008B5007CFFF776F940EAE07008BD007CCE
:10697000FFF780B937B5457C04462DB1207C03B0C4
:10698000BDE83040FFF756B9007C0191FFF782F96E
:1069900000280199F2DC284603B030BD10B514215F
:1069A0000446FDF77AFB204610BD000010B54FF4F9
:1069B0007A730446084611460022C4E90123044BB9
:1069C0002360012320746374FFF76CF9204610BD27
:1069D00058860B007047F8B5064615460C468F18CA
:1069E000BC4206D0336814F8011B9B6830469847B8
:1069F000F6E72846F8BD007C0022FFF77BB9007C53
:106A00000021FFF77FB9007C0021FFF783B9007CEC
:106A10000021FFF787B9007C0021FFF78BB910B583
:106A200014210446FDF739FB204610BD10B54FF484
:106A30007A73044608460021C4E90113034B23601E
:106A400020741146FFF786F9204610BD88860B009A
:106A5000007C0022FFF72EB90023007C1A4619465D
:106A6000FFF730B97FB500221423CDE90122ADF83C
:106A700004300B788DF808304B680393CB6804938F
:106A8000007C0B7A059301A9FFF76CF907B05DF85C
:106A900004FB1FB5003B8DF800104FF0640103911B
:106AA00018BF0123694601928DF80830FFF7DAFF1D
:106AB00005B05DF804FB0123FFF7EBBF007C00226B
:106AC000FFF708B9C9B2FFF7F9BF007C0022FFF752
:106AD00009B90121FFF7F9BF002240681146FFF70D
:106AE0000DBA002240681146FFF728BA002240681C
:106AF0001146FFF733BA40680022FFF727BA406813
:106B0000002281F00101FFF711BA002340681A4604
:106B10001946FFF703BA002340681A461946FFF7E3
:106B2000F5B9002240681146FFF7D8B94068002245
:106B30000221FFF7DBB9002340681A46FFF7C6B908
:106B4000024B04225A60024A1A60704718E7032079
:106B5000B0860B00002340681A46FFF7B7B94068BB
:106B600000220221FFF7C2B9002240681146FFF758
:106B7000B5B9002240681146FFF7C0B9002340684C
:106B80001A461946FFF7C2B9002340681A4619464B
:106B9000FFF7C4B940680021FFF7E8B94068002159
:106BA000FFF7ECB94068002281F00101FFF7BEB9A0
:106BB00040680022FFF7CAB9002240681146FFF77B
:106BC000CDB9002240681146FFF7B8B92DE9F0436E
:106BD00095B014460D460746FFF7E8FD00211C223C
:106BE0000DA8009100F040FE40230C9320466B4618
:106BF0000CAA0021FEF7AEFF044600284BD1024646
:106C000001216868FFF77AF9022180462246686808
:106C1000FFF774F9009E81462146002E3BD00029E3
:106C200039D17368022B03D00A2B11D0F669F4E72F
:106C3000B8F1000FFAD0716906A8043107ADFFF76B
:106C4000E3FD0FCD3C1D0FC42B6823704146EDE7DB
:106C5000B9F1000FEAD07469102201A800F004FE17
:106C600006238DF8143001AD04F1080318341868B8
:106C700059682A4603C20833A3421546F7D101A931
:106C800006A807ADFFF7A0FD0FCD3C1D0FC42B6874
:106C900023704946CAE70098FEF754FF384615B0FE
:106CA000BDE8F083024B034A1A6000225A60704725
:106CB00020E70320EC860B00232813B502D900201F
:106CC00002B010BDA0F10B03022B1AD8174C21788B
:106CD000BFF35B8F11F001010BD120460191FDF74D
:106CE000EBF9019928B11248FFF7CCF92046FDF7DE
:106CF000E8F90F4B1878FFF755F80028DFD101208D
:106D0000DEE7012809D800F0C1F80021007CFFF778
:106D100019F880F00100C0B2D2E709380128EED896
:106D200000F078F8007CFEF7ADFFF2E7B8E603204C
:106D3000BCE60320232838B504460D460AD8FF29AF
:106D400008D0FFF7B9FF28B129462046BDE83840F2
:106D5000FEF710BF38BD38B504460D46FEF712FFEA
:106D6000FF2810D0062804D84D2323FA00F0C307CB
:106D700009D42046FFF7A0FF28B129462046BDE8E8
:106D80003840FEF707BF38BD10B50446FEF7FAFEDF
:106D9000031FDBB2012B08D92046FFF78DFF20B17E
:106DA0002046BDE81040FEF7FDBE002010BD0D28B6
:106DB00010B504469CBF0E34A4B22046FFF77CFFFA
:106DC00050B103212046FEF7CDFE032804D1204612
:106DD000BDE81040FEF7EEBE002010BD7047000079
:106DE00038B5044614252A46002100F03DFD2580D3
:106DF0004025074925812846258200F06BF8044983
:106E00006060284600F066F8E060204638BD00BFAC
:106E100020870B0030B50E4D2978BFF35B8F11F042
:106E2000010487B011D12846FDF746F968B101A8E1
:106E3000FFF7D6FF01AA21460648FFF7B7FD28460F
:106E4000FDF73FF9044800F0FBFC024807B030BDF5
:106E500028E703202CE70320DD6D0B0070470000BE
:106E600038B5202514230446036085600561064972
:106E7000284600F02FF804496060284600F02AF800
:106E8000E060204638BD00BF20870B0030B50E4DB6
:106E90002978BFF35B8F11F0010487B011D1284628
:106EA000FDF70AF968B101A8FFF7DAFF01AA214648
:106EB0000648FFF7BBFD2846FDF703F9044800F03C
:106EC000BFFC024807B030BD44E7032048E7032079
:106ED0005D6E0B00FDF7DFB881F0004102E000BFFE
:106EE00083F0004330B54FEA41044FEA430594EA8A
:106EF000050F08BF90EA020F1FBF54EA000C55EAC5
:106F0000020C7FEA645C7FEA655C00F0E2804FEA95
:106F10005454D4EB5555B8BF6D420CDD2C4480EA77
:106F2000020281EA030382EA000083EA010180EAA7
:106F3000020281EA0303362D88BF30BD11F0004FF5
:106F40004FEA01314FF4801C4CEA113102D040422B
:106F500061EB410113F0004F4FEA03334CEA133366
:106F600002D0524263EB430394EA050F00F0A7807E
:106F7000A4F10104D5F1200E0DDB02FA0EFC22FA79
:106F800005F2801841F1000103FA0EF2801843FA6D
:106F900005F359410EE0A5F120050EF1200E012A5E
:106FA00003FA0EFC28BF4CF0020C43FA05F3C0189C
:106FB00051EBE37101F0004507D54FF0000EDCF115
:106FC000000C7EEB00006EEB0101B1F5801F1BD3BE
:106FD000B1F5001F0CD349085FEA30004FEA3C0CC2
:106FE00004F101044FEA445212F5800F80F09A80B8
:106FF000BCF1004F08BF5FEA500C50F1000041EBBC
:10700000045141EA050130BD5FEA4C0C404141EBBF
:107010000101013C28BFB1F5801FE9D291F0000FBA
:1070200004BF01460020B1FA81F308BF2033A3F169
:107030000B03B3F120020CDA0C3208DD02F1140C60
:10704000C2F10C0201FA0CF021FA02F10CE002F19B
:107050001402D8BFC2F1200C01FA02F120FA0CFC94
:10706000DCBF41EA0C019040E41AA2BF01EB0451DD
:10707000294330BD6FEA04041F3C1CDA0C340EDCDB
:1070800004F11404C4F1200220FA04F001FA02F31E
:1070900040EA030021FA04F345EA030130BDC4F1DC
:1070A0000C04C4F1200220FA02F001FA04F340EAD1
:1070B0000300294630BD21FA04F0294630BD94F082
:1070C000000F83F4801306BF81F480110134013D69
:1070D0004EE77FEA645C18BF7FEA655C29D094EADA
:1070E000050F08BF90EA020F05D054EA000C04BF58
:1070F0001946104630BD91EA030F1EBF0021002043
:1071000030BD5FEA545C05D14000494128BF41F0E1
:10711000004130BD14F580043CBF01F5801130BD45
:1071200001F0004545F0FE4141F470014FF00000D0
:1071300030BD7FEA645C1ABF194610467FEA655C81
:107140001CBF0B46024650EA013406BF52EA033523
:1071500091EA030F41F4002130BD00BF90F0000F11
:1071600004BF0021704730B54FF4806404F132044D
:107170004FF000054FF0000150E700BF90F0000F06
:1071800004BF0021704730B54FF4806404F132042D
:1071900010F0004548BF40424FF000013EE700BFFD
:1071A00042004FEAE2014FEA31014FEA02701FBF8D
:1071B00012F07F4393F07F4F81F06051704732F0BF
:1071C0007F4208BF704793F07F4F04BF41F4002116
:1071D000704730B54FF4607401F0004521F0004174
:1071E0001CE700BF50EA010208BF704730B54FF0FE
:1071F00000050AE050EA010208BF704730B511F0FF
:10720000004502D5404261EB41014FF4806404F136
:1072100032045FEA915C3FF4D8AE4FF003025FEABC
:10722000DC0C18BF03325FEADC0C18BF033202EB40
:10723000DC02C2F1200300FA03FC20FA02F001FA9A
:1072400003FE40EA0E0021FA02F11444BDE600BF3D
:1072500070B54FF0FF0C4CF4E06C1CEA11541DBFEC
:107260001CEA135594EA0C0F95EA0C0F00F0DEF8B7
:107270002C4481EA030621EA4C5123EA4C5350EA9C
:10728000013518BF52EA033541F4801143F48013ED
:1072900038D0A0FB02CE4FF00005E1FB02E506F07E
:1072A0000042E0FB03E54FF00006E1FB03569CF0D3
:1072B000000F18BF4EF0010EA4F1FF04B6F5007FD9
:1072C00064F5407404D25FEA4E0E6D4146EB06064B
:1072D00042EAC62141EA55514FEAC52040EA5E50D4
:1072E0004FEACE2EB4F1FD0C88BFBCF5E06F1ED87E
:1072F000BEF1004F08BF5FEA500E50F1000041EBB5
:10730000045170BD06F0004646EA010140EA020061
:1073100081EA0301B4EB5C04C2BFD4EB0C0541EA83
:10732000045170BD41F480114FF0000E013C00F398
:10733000AB8014F1360FDEBF002001F0004170BDBC
:10734000C4F10004203C35DA0C341BDC04F11404D5
:10735000C4F1200500FA05F320FA04F001FA05F261
:1073600040EA020001F0004221F0004110EBD3702E
:1073700021FA04F642EB06015EEA430E08BF20EA5A
:10738000D37070BDC4F10C04C4F1200500FA04F3FD
:1073900020FA05F001FA04F240EA020001F000418F
:1073A00010EBD37041F100015EEA430E08BF20EA02
:1073B000D37070BDC4F1200500FA05F24EEA020E4A
:1073C00020FA04F301FA05F243EA020321FA04F079
:1073D00001F0004121FA04F220EA020000EBD37030
:1073E0005EEA430E08BF20EAD37070BD94F0000F30
:1073F0000FD101F00046400041EB010111F4801F64
:1074000008BF013CF7D041EA060195F0000F18BF14
:10741000704703F00046520043EB030313F4801F50
:1074200008BF013DF7D043EA0603704794EA0C0F0A
:107430000CEA135518BF95EA0C0F0CD050EA410620
:1074400018BF52EA4306D1D181EA030101F000419D
:107450004FF0000070BD50EA410606BF10461946C5
:1074600052EA430619D094EA0C0F02D150EA0136D1
:1074700013D195EA0C0F05D152EA03361CBF104612
:1074800019460AD181EA030101F0004141F0FE41B1
:1074900041F470014FF0000070BD41F0FE4141F435
:1074A000780170BD70B54FF0FF0C4CF4E06C1CEA35
:1074B00011541DBF1CEA135594EA0C0F95EA0C0FEA
:1074C00000F0A7F8A4EB050481EA030E52EA0335A5
:1074D0004FEA013100F088804FEA03334FF08055C6
:1074E00045EA131343EA12634FEA022245EA1115F3
:1074F00045EA10654FEA00260EF000419D4208BFA4
:10750000964244F1FD0404F5407402D25B084FEA50
:107510003202B61A65EB03055B084FEA32024FF4FC
:1075200080104FF4002CB6EB020E75EB030E22BF59
:10753000B61A754640EA0C005B084FEA3202B6EB19
:10754000020E75EB030E22BFB61A754640EA5C00C8
:107550005B084FEA3202B6EB020E75EB030E22BF58
:10756000B61A754640EA9C005B084FEA3202B6EB59
:10757000020E75EB030E22BFB61A754640EADC0018
:1075800055EA060E18D04FEA051545EA16754FEA7A
:1075900006164FEAC30343EA52734FEAC2025FEA98
:1075A0001C1CC0D111F4801F0BD141EA00014FF027
:1075B00000004FF0004CB6E711F4801F04BF0143F8
:1075C0000020B4F1FD0C88BFBCF5E06F3FF6AFAE14
:1075D000B5EB030C04BFB6EB020C5FEA500C50F1A4
:1075E000000041EB045170BD0EF0004E4EEA113127
:1075F00014EB5C04C2BFD4EB0C0541EA045170BD2E
:1076000041F480114FF0000E013C90E645EA060E71
:107610008DE60CEA135594EA0C0F08BF95EA0C0F9F
:107620003FF43BAF94EA0C0F0AD150EA01347FF4E7
:1076300034AF95EA0C0F7FF425AF104619462CE7BE
:1076400095EA0C0F06D152EA03353FF4FDAE104621
:10765000194622E750EA410618BF52EA43067FF472
:10766000C5AE50EA41047FF40DAF52EA43057FF402
:10767000EBAE12E74FF0FF3C06E000BF4FF0010C0D
:1076800002E000BF4FF0010C4DF804CD4FEA410C71
:107690007FEA6C5C4FEA430C18BF7FEA6C5C1BD03E
:1076A00001B050EA410C0CBF52EA430C91EA030FBF
:1076B00002BF90EA020F0020704710F1000F91EA1C
:1076C000030F58BF994208BF90422CBFD8176FEAEA
:1076D000E37040F0010070474FEA410C7FEA6C5CB8
:1076E00002D150EA013C07D14FEA430C7FEA6C5CBF
:1076F000D6D152EA033CD3D05DF8040B704700BFEB
:107700008446104662468C461946634600E000BF38
:1077100001B5FFF7B7FF002848BF10F1000F01BD0A
:107720004DF808EDFFF7F4FF0CBF012000205DF8D5
:1077300008FB00BF4DF808EDFFF7EAFF34BF01205A
:1077400000205DF808FB00BF4DF808EDFFF7E0FFF3
:1077500094BF012000205DF808FB00BF4DF808ED44
:10776000FFF7CEFF94BF012000205DF808FB00BFAB
:107770004DF808EDFFF7C4FF34BF012000205DF88D
:1077800008FB00BF4FEA410C7FEA6C5C02D150EA73
:10779000013C0AD14FEA430C7FEA6C5C02D152EA09
:1077A000033C02D14FF0000070474FF001007047DA
:1077B0004FEA410212F5001215D211D56FF4787319
:1077C000B3EB625212D94FEAC12343F0004343EABC
:1077D000505311F0004F23FA02F018BF4042704797
:1077E0004FF00000704750EA013005D111F0004021
:1077F00008BF6FF0004070474FF00000704700BFB7
:107800004A0011D212F5001211D20DD56FF478731F
:10781000B3EB62520ED44FEAC12343F0004343EA74
:10782000505323FA02F070474FF00000704750EABF
:10783000013002D14FF0FF3070474FF00000704729
:10784000002301461A46184600F056B80A449142F1
:1078500000F1FF3300D1704710B511F8014B03F868
:10786000014F9142F9D110BD02440346934200D129
:10787000704703F8011BF9E738B5104B1D68AB6B77
:107880000446B3B91820FEF789FB0246A86320B965
:107890000B4B0C484221FEF7A1FB0B490B4BC0E9F7
:1078A00000130B4B83600B23838100210120C2E96D
:1078B0000401AB6B00221C615A6138BDB0E50320A6
:1078C00021870B0038870B000E33CDAB34126DE6E9
:1078D000ECDE050010F8012B11F8013B012A28BF4E
:1078E0009A42F7D0D01A7047034613F8012B002AAA
:1078F000FBD1181A013870472DE9F843DFF8B8803A
:107900000646D8F800001F460D46914600F056F88E
:10791000254B1C6834B9254C1C60254B13B11B68E2
:10792000C4F8883063681F2B07DDD8F8000000F02A
:1079300047F84FF0FF30BDE8F8834EB3D4F8880025
:1079400088B91C4B23B9D8F8000000F038F8F0E7EC
:107950004FF48470FEF722FB0028F4D00023C0E926
:107960004033C4F88800636840F8239001229A40AD
:1079700000EB8301D0F800311343C0F80031022E30
:10798000C1F8807002BFD0F804311343C0F804314D
:107990006368D8F800005A1C0233626044F8235030
:1079A00000F00EF80020C6E7E8E703205CE70320BC
:1079B000000000009D5F0B0014E603207047704735
:1079C0007047000021400B005D400B0085400B001C
:1079D00089400B000000000043616C6C206F6E203A
:1079E00070757265207669727475616C006C6F7762
:1079F000006869676800676F6F64006D6178202DAB
:107A000020006D696E202D20006572726F723A2021
:107A10006D696E2069732067726561746572207488
:107A200068616E206D6178210041006C696768743F
:107A3000206C766C202D20004320207C20200046E6
:107A400000446576696365206E6F7420666F756E9D
:107A5000642E20506C6561736520636865636B20DC
:107A6000776972696E672E0064656661756C742053
:107A7000004D5342004C5342003C535049536574EF
:107A800074696E67732064656661756C743E003C52
:107A900053504953657474696E6773202573257557
:107AA000202573204D4F444525753E000000000001
:107AB000003E5B4F5B3E3E6B4F6B3E1C3E7C3E1C74
:107AC000183C7E3C181C577D571C1C5E7F5E1C00BA
:107AD000183C1800FFE7C3E7FF0018241800FFE771
:107AE000DBE7FF30483A060E2629792926407F0534
:107AF0000507407F05253F5A3CE73C5A7F3E1C1C4A
:107B000008081C1C3E7F14227F22145F5F005F5F09
:107B100006097F017F006689956A606060606094F5
:107B2000A2FFA29408047E040810207E20100808FA
:107B30002A1C08081C2A08081E101010100C1E0C05
:107B40001E0C30383E3830060E3E0E060000000097
:107B50000000005F00000007000700147F147F147E
:107B6000242A7F2A122313086462364956205000C3
:107B700008070300001C2241000041221C002A1CAF
:107B80007F1C2A08083E080800807030000808089A
:107B90000808000060600020100804023E514945BA
:107BA0003E00427F400072494949462141494D33D8
:107BB0001814127F1027454545393C4A494931413F
:107BC000211109073649494936464949291E00000D
:107BD0001400000040340000000814224114141462
:107BE0001414004122140802015909063E415D594E
:107BF0004E7C1211127C7F494949363E4141412257
:107C00007F4141413E7F494949417F090909013E80
:107C1000414151737F0808087F00417F41002040A7
:107C2000413F017F081422417F404040407F021CB9
:107C3000027F7F0408107F3E4141413E7F090909D0
:107C4000063E4151215E7F0919294626494949329C
:107C500003017F01033F4040403F1F2040201F3F62
:107C60004038403F631408146303047804036159E7
:107C7000494D43007F414141020408102000414129
:107C8000417F0402010204404040404000030708D5
:107C90000020545478407F284444383844444428D1
:107CA000384444287F385454541800087E09021878
:107CB000A4A49C787F0804047800447D4000204000
:107CC000403D007F1028440000417F40007C047844
:107CD00004787C080404783844444438FC1824248C
:107CE0001818242418FC7C0804040848545454240C
:107CF00004043F44243C4040207C1C2040201C3C89
:107D00004030403C44281028444C9090907C44647F
:107D1000544C440008364100000077000000413612
:107D2000080002010204023C2623263C1EA1A16198
:107D3000123A4040207A38545455592155557941CA
:107D40002254547842215554784020545579400C9F
:107D50001E52721239555555593954545459395582
:107D60005454580000457C410002457D42000145C5
:107D70007C407D1211127DF0282528F07C54554559
:107D8000002054547C547C0A097F493249494932C5
:107D90003A4444443A324A4848303A4141217A3AD6
:107DA00042402078009DA0A07D3D4242423D3D40A2
:107DB00040403D3C24FF2424487E4943662B2FFC51
:107DC0002F2BFF0929F620C0887E090320545479FF
:107DD000410000447D413048484A32384040227AD0
:107DE000007A0A0A727D0D19317D2629292F28264D
:107DF0002929292630484D40203808080808080855
:107E00000808382F10C8ACBA2F102834FA00007BAD
:107E1000000008142A142222142A140855005500C0
:107E200055AA55AA55AAFF55FF55FF000000FF00AF
:107E3000101010FF00141414FF001010FF00FF10AA
:107E400010F010F0141414FC001414F700FF0000DC
:107E5000FF00FF1414F404FC141417101F10101F5B
:107E6000101F1414141F00101010F0000000001F49
:107E7000101010101F10101010F010000000FF1054
:107E80001010101010101010FF10000000FF140050
:107E900000FF00FF00001F10170000FC04F4141482
:107EA0001710171414F404F40000FF00F71414144E
:107EB00014141414F700F7141414171410101F10CE
:107EC0001F141414F4141010F010F000001F101FF1
:107ED0000000001F14000000FC140000F010F0105F
:107EE00010FF10FF141414FF141010101F000000D6
:107EF00000F010FFFFFFFFFFF0F0F0F0F0FFFFFFDA
:107F00000000000000FFFF0F0F0F0F0F3844443830
:107F100044FC4A4A4A347E02020606027E027E027F
:107F200063554941633844443C04407E201E20068A
:107F3000027E020299A5E7A5991C2A492A1C4C72C7
:107F400001724C304A4D4D303048784830BC625A4E
:107F5000463D3E494949007E0101017E2A2A2A2ADE
:107F60002A44445F444440514A444040444A5140BA
:107F70000000FF0103E080FF000008086B6B08367B
:107F800012362436060F090F0600001818000000EC
:107F90001010003040FF0101001F01011E00191DDB
:107FA0001712003C3C3C3C000000000000000000B8
:107FB0000000000000000000000000009D4C0B00CD
:107FC00009630B00A1400B00A3460B00A5460B0064
:107FD000D7460B00B3460B00C5460B00E5450B002A
:107FE000A3460B00CF480B00CD480B00EF460B001B
:107FF0002D470B0067470B00AD470B00C9470B002F
:108000004D480B000000000000000000AD4D0B00CB
:10801000CD4D0B009D4C0B0009630B007D520B00F6
:10802000A3460B00A5460B00D7460B00B3460B003A
:10803000C5460B00E5450B00A3460B00CF480B00DF
:108040001B540B00C3590B0075590B0067470B00FD
:10805000AD470B00C9470B004D480B000000000066
:108060000000000091450B0065450B0067450B00C3
:10807000000000000001800000000000000000007F
:10808000038000000000000000000007C0000000A6
:1080900000000000000007C0000000000000000019
:1080A000000FC00000000000000000001FE0000002
:1080B000000000000000001FE000000000000000C1
:1080C00000003FE00000000000000000003FF00062
:1080D00000000000000000007FF000000000000031
:1080E000001FF87FF0000000000000003FFE7FF05E
:1080F000000000000000003FFF7FF00000000000D3
:1081000000001FFFFBE0000000000000000FFFF96F
:10811000FFC00000000000000FFFF9FFF8000000A2
:1081200000000007FFF1FFFF00000000000003FC5B
:1081300073FFFF80000000000001FE3FFFFF800092
:108140000000000000FF1E0FFF0000000000000004
:108150007FFE1FFC000000000000003FFFFFF80052
:108160000000000000000FDFFFE000000000000042
:10817000001F19FFC0000000000000003F3CFF008E
:10818000000000000000007E7CF8000000000000FD
:1081900000007FFE7C0000000000000000FFFFFCEC
:1081A0000000000000000000FFFFFE0000000000D3
:1081B000000000FFFFFE0000000000000001FFEFD4
:1081C000FE0000000000000001FFCFFE00000000E4
:1081D00000000003FF07FE0000000000000003FC99
:1081E00007FE0000000000000003F003FE00000096
:1081F00000000000018000FE000000000000000000
:1082000000007E000000000000000000003E0000B2
:1082100000000000000000000C000000000000074B
:108220008000FC000003C0000000078001FC00008B
:1082300003C0000000078001FC000003C000000034
:10824000078001E00000001E000000078001E00040
:1082500000001E007FE3F79FF9FDE7787BDFC0FF9A
:10826000F7FFBFFDFDFF787BDFC0FFF7FFBFFDFD20
:10827000FF787BDFC0F0F787BC3DE1FF787BDE0055
:10828000F0F787BC3DE1F0787BDE0000F787803DAA
:10829000E1E0787BDE007FF7879FFDE1E0787BDE21
:1082A00000FFF787BFFDE1E0787BDE00F0F787BCD9
:1082B0003DE1E0787BDE00F0F787BC3DE1E0787BD4
:1082C000DE00F0F787BC3DE1E0787BDE00FFF7FFE2
:1082D000BFFDE1E07FFBDFC0FFF7FFBFFDE1E07F17
:1082E000FBDFC07CF3F39F3DE1E03E7BCFC00000AD
:1082F000000000000000000000FFFFFFFFFFFFFF85
:10830000FFFFFFC0FFFFFFFFFD68DB111A31C0FF59
:10831000FFFFFFFD2B5AFB6AEFC0FFFFFFFFFD4B86
:108320005B3B1A33C0FFFFFFFFFD6B5BDB6AFDC0E9
:1083300000006000000000000000000000000000DD
:1083400000E000000000000000000000000000014C
:10835000E00000000000000000000000000001F04C
:108360000000000000000000000000000003F0001A
:1083700000000000000000000000000007F0000006
:10838000000000000000000000000007F8000000EE
:10839000000000000000000000000FF800000003D3
:1083A000C0007E000001E0007F0FF800000003C065
:1083B00000FE000001E000FFEFF800000003C00035
:1083C000FE000001E000FFFFF800000003C000F025
:1083D0000000000F007FFE7FC0000003C000F0001F
:1083E00000000F003FFE7FF83FF1FBCFFCFEF3BC27
:1083F0003DEFE01FFE7FFF7FFBFFDFFEFEFFBC3D8A
:10840000EFE01FC6FFFF7FFBFFDFFEFEFFBC3DEF7F
:10841000E00FE3C7FE787BC3DE1EF0FFBC3DEF003C
:1084200007FF87FC787BC3DE1EF0F83C3DEF0001C0
:10843000FFFFF0007BC3C01EF0F03C3DEF0001F3F6
:108440007FE03FFBC3CFFEF0F03C3DEF0003E33F96
:10845000807FFBC3DFFEF0F03C3DEF0007E73C0010
:10846000787BC3DE1EF0F03C3DEF0007FFBE0078D6
:108470007BC3DE1EF0F03C3DEF0007FFFE00787B83
:10848000C3DE1EF0F03C3DEF000FFFFE007FFBFF60
:10849000DFFEF0F03FFDEFE00FFFFF007FFBFFDFAF
:1084A000FEF0F03FFDEFE00FF9FF003E79F9CF9EBF
:1084B000F0F01F3DE7E01FF1FF00000000000000AA
:1084C00000000000001F80FF007FFFFFFFFFFFFF95
:1084D000FFFFFFE01C007F007FFFFFFFFEB46D8801
:1084E0008D18E000001F007FFFFFFFFE95AD7DB5FA
:1084F00077E000000F007FFFFFFFFEA5AD9D8D1907
:10850000E0000006007FFFFFFFFEB5ADEDB57EE0A9
:10851000000000000000000051520B0069520B00E7
:108520009D4C0B0009630B007D520B00A3460B0012
:10853000A5460B00D7460B00B3460B00C5460B0003
:10854000E5450B00A3460B00CF480B001B540B0066
:10855000C3590B0075590B0067470B00AD470B0063
:10856000C9470B004D480B000080C0E0F0F8FCFE4E
:10857000000103070F1F3F7FAED580A8D300408DB9
:108580002000A1C8DB40A4A62EAFDA02818FDA1248
:1085900081DA02812200FF210000000000000000BB
:1085A000000000005B600B0051600B0047600B0097
:1085B0003D600B0031600B0025600B00956B0B00DC
:1085C0009D6B0B0019600B0011600B0007600B0026
:1085D000FD5F0B00CD6B0B00000810182028303811
:1085E0006E616E00696E66006F7666006170700085
:1085F00025592D256D2D25645425483A254D3A25BC
:1086000053257A0061736374696D65000000000092
:108610000000000049670B0039670B003B670B0047
:1086200000000000000000002F680B0097680B009E
:108630006D680B0009630B005F680B0031680B006D
:1086400041680B0091680B0051680B0029680B0012
:10865000000000000000000031690B009D690B0064
:1086600075690B0009630B0045690B0061690B001C
:1086700053690B006F690B0033690B0037690B00FE
:108680000000000000000000D5690B001F6A0B000D
:10869000F7690B00D7690B00FF690B00076A0B0035
:1086A0000F6A0B00176A0B000000000000000000BA
:1086B000376B0B002D6B0B00236B0B00D96A0B0083
:1086C000176B0B000B6B0B00956B0B009D6B0B007E
:1086D000FF6A0B00F76A0B00ED6A0B00E36A0B0000
:1086E000CD6B0B000000000000000000556B0B007C
:1086F0005F6B0B00696B0B00736B0B007D6B0B00EA
:10870000896B0B00956B0B009D6B0B00A56B0B0031
:10871000B16B0B00B96B0B00C36B0B00CD6B0B0087
:10872000005245454E54206D616C6C6F632073752B
:1087300063636565646564002F6D6E742F776F7277
:108740006B73706163652F776F726B7370616365B4
:108750002F4743432D31302D706970656C696E650C
:108760002F6A656E6B696E732D4743432D31302D33
:10877000706970656C696E652D34385F32303230E7
:10878000313132345F313630363138303634312F92
:108790007372632F6E65776C69622F6E65776C6993
:1087A000622F6C6962632F7374646C69622F7261EB
:1087B0006E642E630000000015450B0065600B0021
:1087C000DD610B00F9620B00C9650B00D9650B0078
:1087D000F5650B00416B0B00A56C0B000000000061
:1087E000040000001400000003000000474E550084
:1087F00042B7463649B6FECEE0BEB85EE1A6936605
:04880000BE3215EE81
:048804000000000070
:1088080004860B00B4E5032000000000000000000F
:108818000000000000000000000000000000000050
:108828000000000000000000000000000000000040
:108838000000000000000000000000000000000030
:108848000000000000000000000000000000000020
:108858000000000000000000000000000000000010
:0C8868000000000000000000ECE703200E
:10887400FFFFFFFF00000102030405060708090AC1
:108884000B0C0D0E0F101112131415161718191ABC
:088894001B1C1D1E1F20280003
:04889C0078563412C4
:04000003B0004020E9
:00000001FF
